{
  "_format": "hh-sol-artifact-1",
  "contractName": "MemeNFT",
  "sourceName": "contracts/MemeNFT.sol",
  "abi": [
    {
      "inputs": [],
      "stateMutability": "nonpayable",
      "type": "constructor"
    },
    {
      "anonymous": false,
      "inputs": [
        {
          "indexed": true,
          "internalType": "address",
          "name": "owner",
          "type": "address"
        },
        {
          "indexed": true,
          "internalType": "address",
          "name": "approved",
          "type": "address"
        },
        {
          "indexed": true,
          "internalType": "uint256",
          "name": "tokenId",
          "type": "uint256"
        }
      ],
      "name": "Approval",
      "type": "event"
    },
    {
      "anonymous": false,
      "inputs": [
        {
          "indexed": true,
          "internalType": "address",
          "name": "owner",
          "type": "address"
        },
        {
          "indexed": true,
          "internalType": "address",
          "name": "operator",
          "type": "address"
        },
        {
          "indexed": false,
          "internalType": "bool",
          "name": "approved",
          "type": "bool"
        }
      ],
      "name": "ApprovalForAll",
      "type": "event"
    },
    {
      "anonymous": false,
      "inputs": [
        {
          "indexed": false,
          "internalType": "address",
          "name": "sender",
          "type": "address"
        },
        {
          "indexed": false,
          "internalType": "uint256",
          "name": "tokenId",
          "type": "uint256"
        }
      ],
      "name": "NewMemeMinted",
      "type": "event"
    },
    {
      "anonymous": false,
      "inputs": [
        {
          "indexed": true,
          "internalType": "address",
          "name": "from",
          "type": "address"
        },
        {
          "indexed": true,
          "internalType": "address",
          "name": "to",
          "type": "address"
        },
        {
          "indexed": true,
          "internalType": "uint256",
          "name": "tokenId",
          "type": "uint256"
        }
      ],
      "name": "Transfer",
      "type": "event"
    },
    {
      "inputs": [
        {
          "internalType": "address",
          "name": "to",
          "type": "address"
        },
        {
          "internalType": "uint256",
          "name": "tokenId",
          "type": "uint256"
        }
      ],
      "name": "approve",
      "outputs": [],
      "stateMutability": "nonpayable",
      "type": "function"
    },
    {
      "inputs": [
        {
          "internalType": "address",
          "name": "owner",
          "type": "address"
        }
      ],
      "name": "balanceOf",
      "outputs": [
        {
          "internalType": "uint256",
          "name": "",
          "type": "uint256"
        }
      ],
      "stateMutability": "view",
      "type": "function"
    },
    {
      "inputs": [
        {
          "internalType": "uint256",
          "name": "tokenId",
          "type": "uint256"
        }
      ],
      "name": "getApproved",
      "outputs": [
        {
          "internalType": "address",
          "name": "",
          "type": "address"
        }
      ],
      "stateMutability": "view",
      "type": "function"
    },
    {
      "inputs": [
        {
          "internalType": "address",
          "name": "owner",
          "type": "address"
        },
        {
          "internalType": "address",
          "name": "operator",
          "type": "address"
        }
      ],
      "name": "isApprovedForAll",
      "outputs": [
        {
          "internalType": "bool",
          "name": "",
          "type": "bool"
        }
      ],
      "stateMutability": "view",
      "type": "function"
    },
    {
      "inputs": [
        {
          "internalType": "address",
          "name": "memer",
          "type": "address"
        },
        {
          "internalType": "string",
          "name": "tokenName",
          "type": "string"
        },
        {
          "internalType": "string",
          "name": "tokenDescription",
          "type": "string"
        },
        {
          "internalType": "string",
          "name": "tokenImage",
          "type": "string"
        }
      ],
      "name": "mintMemeNFT",
      "outputs": [],
      "stateMutability": "nonpayable",
      "type": "function"
    },
    {
      "inputs": [],
      "name": "name",
      "outputs": [
        {
          "internalType": "string",
          "name": "",
          "type": "string"
        }
      ],
      "stateMutability": "view",
      "type": "function"
    },
    {
      "inputs": [
        {
          "internalType": "uint256",
          "name": "tokenId",
          "type": "uint256"
        }
      ],
      "name": "ownerOf",
      "outputs": [
        {
          "internalType": "address",
          "name": "",
          "type": "address"
        }
      ],
      "stateMutability": "view",
      "type": "function"
    },
    {
      "inputs": [
        {
          "internalType": "address",
          "name": "from",
          "type": "address"
        },
        {
          "internalType": "address",
          "name": "to",
          "type": "address"
        },
        {
          "internalType": "uint256",
          "name": "tokenId",
          "type": "uint256"
        }
      ],
      "name": "safeTransferFrom",
      "outputs": [],
      "stateMutability": "nonpayable",
      "type": "function"
    },
    {
      "inputs": [
        {
          "internalType": "address",
          "name": "from",
          "type": "address"
        },
        {
          "internalType": "address",
          "name": "to",
          "type": "address"
        },
        {
          "internalType": "uint256",
          "name": "tokenId",
          "type": "uint256"
        },
        {
          "internalType": "bytes",
          "name": "_data",
          "type": "bytes"
        }
      ],
      "name": "safeTransferFrom",
      "outputs": [],
      "stateMutability": "nonpayable",
      "type": "function"
    },
    {
      "inputs": [
        {
          "internalType": "address",
          "name": "operator",
          "type": "address"
        },
        {
          "internalType": "bool",
          "name": "approved",
          "type": "bool"
        }
      ],
      "name": "setApprovalForAll",
      "outputs": [],
      "stateMutability": "nonpayable",
      "type": "function"
    },
    {
      "inputs": [
        {
          "internalType": "bytes4",
          "name": "interfaceId",
          "type": "bytes4"
        }
      ],
      "name": "supportsInterface",
      "outputs": [
        {
          "internalType": "bool",
          "name": "",
          "type": "bool"
        }
      ],
      "stateMutability": "view",
      "type": "function"
    },
    {
      "inputs": [],
      "name": "symbol",
      "outputs": [
        {
          "internalType": "string",
          "name": "",
          "type": "string"
        }
      ],
      "stateMutability": "view",
      "type": "function"
    },
    {
      "inputs": [
        {
          "internalType": "uint256",
          "name": "tokenId",
          "type": "uint256"
        }
      ],
      "name": "tokenURI",
      "outputs": [
        {
          "internalType": "string",
          "name": "",
          "type": "string"
        }
      ],
      "stateMutability": "view",
      "type": "function"
    },
    {
      "inputs": [],
      "name": "totalTokensMinted",
      "outputs": [
        {
          "internalType": "uint256",
          "name": "",
          "type": "uint256"
        }
      ],
      "stateMutability": "view",
      "type": "function"
    },
    {
      "inputs": [
        {
          "internalType": "address",
          "name": "from",
          "type": "address"
        },
        {
          "internalType": "address",
          "name": "to",
          "type": "address"
        },
        {
          "internalType": "uint256",
          "name": "tokenId",
          "type": "uint256"
        }
      ],
      "name": "transferFrom",
      "outputs": [],
      "stateMutability": "nonpayable",
      "type": "function"
    }
  ],
  "bytecode": "0x60806040523480156200001157600080fd5b506040518060400160405280600481526020017f4d656d65000000000000000000000000000000000000000000000000000000008152506040518060400160405280600481526020017f4d454d4500000000000000000000000000000000000000000000000000000000815250816000908051906020019062000096929190620001b3565b508060019080519060200190620000af929190620001b3565b505050620000e16040518060600160405280602a815260200162003c36602a9139620000e760201b62000d1b1760201c565b62000390565b6200018781604051602401620000fe9190620002a4565b6040516020818303038152906040527f41304fac000000000000000000000000000000000000000000000000000000007bffffffffffffffffffffffffffffffffffffffffffffffffffffffff19166020820180517bffffffffffffffffffffffffffffffffffffffffffffffffffffffff83818316178352505050506200018a60201b60201c565b50565b60008151905060006a636f6e736f6c652e6c6f679050602083016000808483855afa5050505050565b828054620001c1906200031a565b90600052602060002090601f016020900481019282620001e5576000855562000231565b82601f106200020057805160ff191683800117855562000231565b8280016001018555821562000231579182015b828111156200023057825182559160200191906001019062000213565b5b50905062000240919062000244565b5090565b5b808211156200025f57600081600090555060010162000245565b5090565b60006200027082620002c8565b6200027c8185620002d3565b93506200028e818560208601620002e4565b62000299816200037f565b840191505092915050565b60006020820190508181036000830152620002c0818462000263565b905092915050565b600081519050919050565b600082825260208201905092915050565b60005b8381101562000304578082015181840152602081019050620002e7565b8381111562000314576000848401525b50505050565b600060028204905060018216806200033357607f821691505b602082108114156200034a576200034962000350565b5b50919050565b7f4e487b7100000000000000000000000000000000000000000000000000000000600052602260045260246000fd5b6000601f19601f8301169050919050565b61389680620003a06000396000f3fe608060405234801561001057600080fd5b50600436106100f55760003560e01c806370a0823111610097578063a22cb46511610066578063a22cb46514610284578063b88d4fde146102a0578063c87b56dd146102bc578063e985e9c5146102ec576100f5565b806370a08231146101fc5780637d549e991461022c578063848228a11461024a57806395d89b4114610266576100f5565b8063095ea7b3116100d3578063095ea7b31461017857806323b872dd1461019457806342842e0e146101b05780636352211e146101cc576100f5565b806301ffc9a7146100fa57806306fdde031461012a578063081812fc14610148575b600080fd5b610114600480360381019061010f9190612462565b61031c565b6040516101219190612a8c565b60405180910390f35b6101326103fe565b60405161013f9190612aa7565b60405180910390f35b610162600480360381019061015d91906124b4565b610490565b60405161016f91906129fc565b60405180910390f35b610192600480360381019061018d9190612426565b610515565b005b6101ae60048036038101906101a99190612275565b61062d565b005b6101ca60048036038101906101c59190612275565b61068d565b005b6101e660048036038101906101e191906124b4565b6106ad565b6040516101f391906129fc565b60405180910390f35b61021660048036038101906102119190612210565b61075f565b6040516102239190612d09565b60405180910390f35b610234610817565b6040516102419190612d09565b60405180910390f35b610264600480360381019061025f919061237b565b61082d565b005b61026e610a2b565b60405161027b9190612aa7565b60405180910390f35b61029e6004803603810190610299919061233f565b610abd565b005b6102ba60048036038101906102b591906122c4565b610ad3565b005b6102d660048036038101906102d191906124b4565b610b35565b6040516102e39190612aa7565b60405180910390f35b61030660048036038101906103019190612239565b610c87565b6040516103139190612a8c565b60405180910390f35b60007f80ac58cd000000000000000000000000000000000000000000000000000000007bffffffffffffffffffffffffffffffffffffffffffffffffffffffff1916827bffffffffffffffffffffffffffffffffffffffffffffffffffffffff191614806103e757507f5b5e139f000000000000000000000000000000000000000000000000000000007bffffffffffffffffffffffffffffffffffffffffffffffffffffffff1916827bffffffffffffffffffffffffffffffffffffffffffffffffffffffff1916145b806103f757506103f682610db4565b5b9050919050565b60606000805461040d90612fb9565b80601f016020809104026020016040519081016040528092919081815260200182805461043990612fb9565b80156104865780601f1061045b57610100808354040283529160200191610486565b820191906000526020600020905b81548152906001019060200180831161046957829003601f168201915b5050505050905090565b600061049b82610e1e565b6104da576040517f08c379a00000000000000000000000000000000000000000000000000000000081526004016104d190612c69565b60405180910390fd5b6004600083815260200190815260200160002060009054906101000a900473ffffffffffffffffffffffffffffffffffffffff169050919050565b6000610520826106ad565b90508073ffffffffffffffffffffffffffffffffffffffff168373ffffffffffffffffffffffffffffffffffffffff161415610591576040517f08c379a000000000000000000000000000000000000000000000000000000000815260040161058890612cc9565b60405180910390fd5b8073ffffffffffffffffffffffffffffffffffffffff166105b0610e8a565b73ffffffffffffffffffffffffffffffffffffffff1614806105df57506105de816105d9610e8a565b610c87565b5b61061e576040517f08c379a000000000000000000000000000000000000000000000000000000000815260040161061590612ba9565b60405180910390fd5b6106288383610e92565b505050565b61063e610638610e8a565b82610f4b565b61067d576040517f08c379a000000000000000000000000000000000000000000000000000000000815260040161067490612ce9565b60405180910390fd5b610688838383611029565b505050565b6106a883838360405180602001604052806000815250610ad3565b505050565b6000806002600084815260200190815260200160002060009054906101000a900473ffffffffffffffffffffffffffffffffffffffff169050600073ffffffffffffffffffffffffffffffffffffffff168173ffffffffffffffffffffffffffffffffffffffff161415610756576040517f08c379a000000000000000000000000000000000000000000000000000000000815260040161074d90612be9565b60405180910390fd5b80915050919050565b60008073ffffffffffffffffffffffffffffffffffffffff168273ffffffffffffffffffffffffffffffffffffffff1614156107d0576040517f08c379a00000000000000000000000000000000000000000000000000000000081526004016107c790612bc9565b60405180910390fd5b600360008373ffffffffffffffffffffffffffffffffffffffff1673ffffffffffffffffffffffffffffffffffffffff168152602001908152602001600020549050919050565b6000806108246008611290565b90508091505090565b8060405160200161083d906129e7565b60405160208183030381529060405280519060200120610860600160168461129e565b6040516020016108709190612918565b60405160208183030381529060405280519060200120146108c6576040517f08c379a00000000000000000000000000000000000000000000000000000000081526004016108bd90612b69565b60405180910390fd5b6040516020016108d5906129d2565b604051602081830303815290604052805190602001206108f86001600484611425565b6040516020016109089190612918565b604051602081830303815290604052805190602001201461095e576040517f08c379a000000000000000000000000000000000000000000000000000000000815260040161095590612ca9565b60405180910390fd5b600061098c85858560405160200161097893929190612953565b6040516020818303038152906040526115ac565b90506000816040516020016109a191906129b0565b604051602081830303815290604052905060006109be6007611290565b90506109ca8882611736565b6109d48183611754565b7f11a2939316e946af2e369caca78f6ed5ca3bec8a902c39cb7f065c6db6d41d803382604051610a05929190612a63565b60405180910390a1610a1760076117c8565b610a2160086117c8565b5050505050505050565b606060018054610a3a90612fb9565b80601f0160208091040260200160405190810160405280929190818152602001828054610a6690612fb9565b8015610ab35780601f10610a8857610100808354040283529160200191610ab3565b820191906000526020600020905b815481529060010190602001808311610a9657829003601f168201915b5050505050905090565b610acf610ac8610e8a565b83836117de565b5050565b610ae4610ade610e8a565b83610f4b565b610b23576040517f08c379a0000000000000000000000000000000000000000000000000000000008152600401610b1a90612ce9565b60405180910390fd5b610b2f8484848461194b565b50505050565b6060610b4082610e1e565b610b7f576040517f08c379a0000000000000000000000000000000000000000000000000000000008152600401610b7690612c49565b60405180910390fd5b6000600660008481526020019081526020016000208054610b9f90612fb9565b80601f0160208091040260200160405190810160405280929190818152602001828054610bcb90612fb9565b8015610c185780601f10610bed57610100808354040283529160200191610c18565b820191906000526020600020905b815481529060010190602001808311610bfb57829003601f168201915b505050505090506000610c296119a7565b9050600081511415610c3f578192505050610c82565b600082511115610c74578082604051602001610c5c92919061292f565b60405160208183030381529060405292505050610c82565b610c7d846119be565b925050505b919050565b6000600560008473ffffffffffffffffffffffffffffffffffffffff1673ffffffffffffffffffffffffffffffffffffffff16815260200190815260200160002060008373ffffffffffffffffffffffffffffffffffffffff1673ffffffffffffffffffffffffffffffffffffffff16815260200190815260200160002060009054906101000a900460ff16905092915050565b610db181604051602401610d2f9190612aa7565b6040516020818303038152906040527f41304fac000000000000000000000000000000000000000000000000000000007bffffffffffffffffffffffffffffffffffffffffffffffffffffffff19166020820180517bffffffffffffffffffffffffffffffffffffffffffffffffffffffff8381831617835250505050611a65565b50565b60007f01ffc9a7000000000000000000000000000000000000000000000000000000007bffffffffffffffffffffffffffffffffffffffffffffffffffffffff1916827bffffffffffffffffffffffffffffffffffffffffffffffffffffffff1916149050919050565b60008073ffffffffffffffffffffffffffffffffffffffff166002600084815260200190815260200160002060009054906101000a900473ffffffffffffffffffffffffffffffffffffffff1673ffffffffffffffffffffffffffffffffffffffff1614159050919050565b600033905090565b816004600083815260200190815260200160002060006101000a81548173ffffffffffffffffffffffffffffffffffffffff021916908373ffffffffffffffffffffffffffffffffffffffff160217905550808273ffffffffffffffffffffffffffffffffffffffff16610f05836106ad565b73ffffffffffffffffffffffffffffffffffffffff167f8c5be1e5ebec7d5bd14f71427d1e84f3dd0314c0f7b2291e5b200ac8c7c3b92560405160405180910390a45050565b6000610f5682610e1e565b610f95576040517f08c379a0000000000000000000000000000000000000000000000000000000008152600401610f8c90612b89565b60405180910390fd5b6000610fa0836106ad565b90508073ffffffffffffffffffffffffffffffffffffffff168473ffffffffffffffffffffffffffffffffffffffff16148061100f57508373ffffffffffffffffffffffffffffffffffffffff16610ff784610490565b73ffffffffffffffffffffffffffffffffffffffff16145b80611020575061101f8185610c87565b5b91505092915050565b8273ffffffffffffffffffffffffffffffffffffffff16611049826106ad565b73ffffffffffffffffffffffffffffffffffffffff161461109f576040517f08c379a000000000000000000000000000000000000000000000000000000000815260040161109690612ae9565b60405180910390fd5b600073ffffffffffffffffffffffffffffffffffffffff168273ffffffffffffffffffffffffffffffffffffffff16141561110f576040517f08c379a000000000000000000000000000000000000000000000000000000000815260040161110690612b29565b60405180910390fd5b61111a838383611a8e565b611125600082610e92565b6001600360008573ffffffffffffffffffffffffffffffffffffffff1673ffffffffffffffffffffffffffffffffffffffff16815260200190815260200160002060008282546111759190612ecf565b925050819055506001600360008473ffffffffffffffffffffffffffffffffffffffff1673ffffffffffffffffffffffffffffffffffffffff16815260200190815260200160002060008282546111cc9190612dee565b92505081905550816002600083815260200190815260200160002060006101000a81548173ffffffffffffffffffffffffffffffffffffffff021916908373ffffffffffffffffffffffffffffffffffffffff160217905550808273ffffffffffffffffffffffffffffffffffffffff168473ffffffffffffffffffffffffffffffffffffffff167fddf252ad1be2c89b69c2b068fc378daa952ba7f163c4a11628f55a4df523b3ef60405160405180910390a461128b838383611a93565b505050565b600081600001549050919050565b60606000600185856112b09190612ecf565b6112ba9190612dee565b67ffffffffffffffff8111156112f9577f4e487b7100000000000000000000000000000000000000000000000000000000600052604160045260246000fd5b6040519080825280601f01601f19166020018201604052801561132b5781602001600182028036833780820191505090505b50905060005b858561133d9190612ecf565b81116114195783600187836113529190612dee565b61135c9190612ecf565b81518110611393577f4e487b7100000000000000000000000000000000000000000000000000000000600052603260045260246000fd5b602001015160f81c60f81b8282815181106113d7577f4e487b7100000000000000000000000000000000000000000000000000000000600052603260045260246000fd5b60200101907effffffffffffffffffffffffffffffffffffffffffffffffffffffffffffff1916908160001a90535080806114119061301c565b915050611331565b50809150509392505050565b60606000600185856114379190612ecf565b6114419190612dee565b67ffffffffffffffff811115611480577f4e487b7100000000000000000000000000000000000000000000000000000000600052604160045260246000fd5b6040519080825280601f01601f1916602001820160405280156114b25781602001600182028036833780820191505090505b50905060005b85856114c49190612ecf565b81116115a05783858551836114d99190612dee565b6114e39190612ecf565b8151811061151a577f4e487b7100000000000000000000000000000000000000000000000000000000600052603260045260246000fd5b602001015160f81c60f81b82828151811061155e577f4e487b7100000000000000000000000000000000000000000000000000000000600052603260045260246000fd5b60200101907effffffffffffffffffffffffffffffffffffffffffffffffffffffffffffff1916908160001a90535080806115989061301c565b9150506114b8565b50809150509392505050565b60606000825114156115cf57604051806020016040528060008152509050611731565b600060405180606001604052806040815260200161382160409139905060006003600285516115fe9190612dee565b6116089190612e44565b60046116149190612e75565b67ffffffffffffffff811115611653577f4e487b7100000000000000000000000000000000000000000000000000000000600052604160045260246000fd5b6040519080825280601f01601f1916602001820160405280156116855781602001600182028036833780820191505090505b509050600182016020820185865187015b808210156116f1576003820191508151603f8160121c168501518453600184019350603f81600c1c168501518453600184019350603f8160061c168501518453600184019350603f8116850151845360018401935050611696565b505060038651066001811461170d576002811461172057611728565b603d6001830353603d6002830353611728565b603d60018303535b50505080925050505b919050565b611750828260405180602001604052806000815250611a98565b5050565b61175d82610e1e565b61179c576040517f08c379a000000000000000000000000000000000000000000000000000000000815260040161179390612c09565b60405180910390fd5b806006600084815260200190815260200160002090805190602001906117c3929190612034565b505050565b6001816000016000828254019250508190555050565b8173ffffffffffffffffffffffffffffffffffffffff168373ffffffffffffffffffffffffffffffffffffffff16141561184d576040517f08c379a000000000000000000000000000000000000000000000000000000000815260040161184490612b49565b60405180910390fd5b80600560008573ffffffffffffffffffffffffffffffffffffffff1673ffffffffffffffffffffffffffffffffffffffff16815260200190815260200160002060008473ffffffffffffffffffffffffffffffffffffffff1673ffffffffffffffffffffffffffffffffffffffff16815260200190815260200160002060006101000a81548160ff0219169083151502179055508173ffffffffffffffffffffffffffffffffffffffff168373ffffffffffffffffffffffffffffffffffffffff167f17307eab39ab6107e8899845ad3d59bd9653f200f220920489ca2b5937696c318360405161193e9190612a8c565b60405180910390a3505050565b611956848484611029565b61196284848484611af3565b6119a1576040517f08c379a000000000000000000000000000000000000000000000000000000000815260040161199890612ac9565b60405180910390fd5b50505050565b606060405180602001604052806000815250905090565b60606119c982610e1e565b611a08576040517f08c379a00000000000000000000000000000000000000000000000000000000081526004016119ff90612c89565b60405180910390fd5b6000611a126119a7565b90506000815111611a325760405180602001604052806000815250611a5d565b80611a3c84611c8a565b604051602001611a4d92919061292f565b6040516020818303038152906040525b915050919050565b60008151905060006a636f6e736f6c652e6c6f679050602083016000808483855afa5050505050565b505050565b505050565b611aa28383611e37565b611aaf6000848484611af3565b611aee576040517f08c379a0000000000000000000000000000000000000000000000000000000008152600401611ae590612ac9565b60405180910390fd5b505050565b6000611b148473ffffffffffffffffffffffffffffffffffffffff16612011565b15611c7d578373ffffffffffffffffffffffffffffffffffffffff1663150b7a02611b3d610e8a565b8786866040518563ffffffff1660e01b8152600401611b5f9493929190612a17565b602060405180830381600087803b158015611b7957600080fd5b505af1925050508015611baa57506040513d601f19601f82011682018060405250810190611ba7919061248b565b60015b611c2d573d8060008114611bda576040519150601f19603f3d011682016040523d82523d6000602084013e611bdf565b606091505b50600081511415611c25576040517f08c379a0000000000000000000000000000000000000000000000000000000008152600401611c1c90612ac9565b60405180910390fd5b805181602001fd5b63150b7a0260e01b7bffffffffffffffffffffffffffffffffffffffffffffffffffffffff1916817bffffffffffffffffffffffffffffffffffffffffffffffffffffffff191614915050611c82565b600190505b949350505050565b60606000821415611cd2576040518060400160405280600181526020017f30000000000000000000000000000000000000000000000000000000000000008152509050611e32565b600082905060005b60008214611d04578080611ced9061301c565b915050600a82611cfd9190612e44565b9150611cda565b60008167ffffffffffffffff811115611d46577f4e487b7100000000000000000000000000000000000000000000000000000000600052604160045260246000fd5b6040519080825280601f01601f191660200182016040528015611d785781602001600182028036833780820191505090505b5090505b60008514611e2b57600182611d919190612ecf565b9150600a85611da09190613065565b6030611dac9190612dee565b60f81b818381518110611de8577f4e487b7100000000000000000000000000000000000000000000000000000000600052603260045260246000fd5b60200101907effffffffffffffffffffffffffffffffffffffffffffffffffffffffffffff1916908160001a905350600a85611e249190612e44565b9450611d7c565b8093505050505b919050565b600073ffffffffffffffffffffffffffffffffffffffff168273ffffffffffffffffffffffffffffffffffffffff161415611ea7576040517f08c379a0000000000000000000000000000000000000000000000000000000008152600401611e9e90612c29565b60405180910390fd5b611eb081610e1e565b15611ef0576040517f08c379a0000000000000000000000000000000000000000000000000000000008152600401611ee790612b09565b60405180910390fd5b611efc60008383611a8e565b6001600360008473ffffffffffffffffffffffffffffffffffffffff1673ffffffffffffffffffffffffffffffffffffffff1681526020019081526020016000206000828254611f4c9190612dee565b92505081905550816002600083815260200190815260200160002060006101000a81548173ffffffffffffffffffffffffffffffffffffffff021916908373ffffffffffffffffffffffffffffffffffffffff160217905550808273ffffffffffffffffffffffffffffffffffffffff16600073ffffffffffffffffffffffffffffffffffffffff167fddf252ad1be2c89b69c2b068fc378daa952ba7f163c4a11628f55a4df523b3ef60405160405180910390a461200d60008383611a93565b5050565b6000808273ffffffffffffffffffffffffffffffffffffffff163b119050919050565b82805461204090612fb9565b90600052602060002090601f01602090048101928261206257600085556120a9565b82601f1061207b57805160ff19168380011785556120a9565b828001600101855582156120a9579182015b828111156120a857825182559160200191906001019061208d565b5b5090506120b691906120ba565b5090565b5b808211156120d35760008160009055506001016120bb565b5090565b60006120ea6120e584612d49565b612d24565b90508281526020810184848401111561210257600080fd5b61210d848285612f77565b509392505050565b600061212861212384612d7a565b612d24565b90508281526020810184848401111561214057600080fd5b61214b848285612f77565b509392505050565b600081359050612162816137c4565b92915050565b600081359050612177816137db565b92915050565b60008135905061218c816137f2565b92915050565b6000815190506121a1816137f2565b92915050565b600082601f8301126121b857600080fd5b81356121c88482602086016120d7565b91505092915050565b600082601f8301126121e257600080fd5b81356121f2848260208601612115565b91505092915050565b60008135905061220a81613809565b92915050565b60006020828403121561222257600080fd5b600061223084828501612153565b91505092915050565b6000806040838503121561224c57600080fd5b600061225a85828601612153565b925050602061226b85828601612153565b9150509250929050565b60008060006060848603121561228a57600080fd5b600061229886828701612153565b93505060206122a986828701612153565b92505060406122ba868287016121fb565b9150509250925092565b600080600080608085870312156122da57600080fd5b60006122e887828801612153565b94505060206122f987828801612153565b935050604061230a878288016121fb565b925050606085013567ffffffffffffffff81111561232757600080fd5b612333878288016121a7565b91505092959194509250565b6000806040838503121561235257600080fd5b600061236085828601612153565b925050602061237185828601612168565b9150509250929050565b6000806000806080858703121561239157600080fd5b600061239f87828801612153565b945050602085013567ffffffffffffffff8111156123bc57600080fd5b6123c8878288016121d1565b935050604085013567ffffffffffffffff8111156123e557600080fd5b6123f1878288016121d1565b925050606085013567ffffffffffffffff81111561240e57600080fd5b61241a878288016121d1565b91505092959194509250565b6000806040838503121561243957600080fd5b600061244785828601612153565b9250506020612458858286016121fb565b9150509250929050565b60006020828403121561247457600080fd5b60006124828482850161217d565b91505092915050565b60006020828403121561249d57600080fd5b60006124ab84828501612192565b91505092915050565b6000602082840312156124c657600080fd5b60006124d4848285016121fb565b91505092915050565b6124e681612f03565b82525050565b6124f581612f15565b82525050565b600061250682612dab565b6125108185612dc1565b9350612520818560208601612f86565b61252981613152565b840191505092915050565b600061253f82612db6565b6125498185612dd2565b9350612559818560208601612f86565b61256281613152565b840191505092915050565b600061257882612db6565b6125828185612de3565b9350612592818560208601612f86565b80840191505092915050565b60006125ab601383612de3565b91506125b682613163565b601382019050919050565b60006125ce603283612dd2565b91506125d98261318c565b604082019050919050565b60006125f1602583612dd2565b91506125fc826131db565b604082019050919050565b6000612614601c83612dd2565b915061261f8261322a565b602082019050919050565b6000612637602483612dd2565b915061264282613253565b604082019050919050565b600061265a601983612dd2565b9150612665826132a2565b602082019050919050565b600061267d603683612dd2565b9150612688826132cb565b604082019050919050565b60006126a0602c83612dd2565b91506126ab8261331a565b604082019050919050565b60006126c3603883612dd2565b91506126ce82613369565b604082019050919050565b60006126e6602a83612dd2565b91506126f1826133b8565b604082019050919050565b6000612709602983612dd2565b915061271482613407565b604082019050919050565b600061272c602e83612dd2565b915061273782613456565b604082019050919050565b600061274f600283612de3565b915061275a826134a5565b600282019050919050565b6000612772602083612dd2565b915061277d826134ce565b602082019050919050565b6000612795600d83612de3565b91506127a0826134f7565b600d82019050919050565b60006127b8603183612dd2565b91506127c382613520565b604082019050919050565b60006127db602c83612dd2565b91506127e68261356f565b604082019050919050565b60006127fe602f83612dd2565b9150612809826135be565b604082019050919050565b6000612821600a83612de3565b915061282c8261360d565b600a82019050919050565b6000612844604d83612dd2565b915061284f82613636565b606082019050919050565b6000612867602183612dd2565b9150612872826136ab565b604082019050919050565b600061288a601d83612de3565b9150612895826136fa565b601d82019050919050565b60006128ad603183612dd2565b91506128b882613723565b604082019050919050565b60006128d0600483612de3565b91506128db82613772565b600482019050919050565b60006128f3601683612de3565b91506128fe8261379b565b601682019050919050565b61291281612f6d565b82525050565b6000612924828461256d565b915081905092915050565b600061293b828561256d565b9150612947828461256d565b91508190509392505050565b600061295e82612814565b915061296a828661256d565b91506129758261259e565b9150612981828561256d565b915061298c82612788565b9150612998828461256d565b91506129a382612742565b9150819050949350505050565b60006129bb8261287d565b91506129c7828461256d565b915081905092915050565b60006129dd826128c3565b9150819050919050565b60006129f2826128e6565b9150819050919050565b6000602082019050612a1160008301846124dd565b92915050565b6000608082019050612a2c60008301876124dd565b612a3960208301866124dd565b612a466040830185612909565b8181036060830152612a5881846124fb565b905095945050505050565b6000604082019050612a7860008301856124dd565b612a856020830184612909565b9392505050565b6000602082019050612aa160008301846124ec565b92915050565b60006020820190508181036000830152612ac18184612534565b905092915050565b60006020820190508181036000830152612ae2816125c1565b9050919050565b60006020820190508181036000830152612b02816125e4565b9050919050565b60006020820190508181036000830152612b2281612607565b9050919050565b60006020820190508181036000830152612b428161262a565b9050919050565b60006020820190508181036000830152612b628161264d565b9050919050565b60006020820190508181036000830152612b8281612670565b9050919050565b60006020820190508181036000830152612ba281612693565b9050919050565b60006020820190508181036000830152612bc2816126b6565b9050919050565b60006020820190508181036000830152612be2816126d9565b9050919050565b60006020820190508181036000830152612c02816126fc565b9050919050565b60006020820190508181036000830152612c228161271f565b9050919050565b60006020820190508181036000830152612c4281612765565b9050919050565b60006020820190508181036000830152612c62816127ab565b9050919050565b60006020820190508181036000830152612c82816127ce565b9050919050565b60006020820190508181036000830152612ca2816127f1565b9050919050565b60006020820190508181036000830152612cc281612837565b9050919050565b60006020820190508181036000830152612ce28161285a565b9050919050565b60006020820190508181036000830152612d02816128a0565b9050919050565b6000602082019050612d1e6000830184612909565b92915050565b6000612d2e612d3f565b9050612d3a8282612feb565b919050565b6000604051905090565b600067ffffffffffffffff821115612d6457612d63613123565b5b612d6d82613152565b9050602081019050919050565b600067ffffffffffffffff821115612d9557612d94613123565b5b612d9e82613152565b9050602081019050919050565b600081519050919050565b600081519050919050565b600082825260208201905092915050565b600082825260208201905092915050565b600081905092915050565b6000612df982612f6d565b9150612e0483612f6d565b9250827fffffffffffffffffffffffffffffffffffffffffffffffffffffffffffffffff03821115612e3957612e38613096565b5b828201905092915050565b6000612e4f82612f6d565b9150612e5a83612f6d565b925082612e6a57612e696130c5565b5b828204905092915050565b6000612e8082612f6d565b9150612e8b83612f6d565b9250817fffffffffffffffffffffffffffffffffffffffffffffffffffffffffffffffff0483118215151615612ec457612ec3613096565b5b828202905092915050565b6000612eda82612f6d565b9150612ee583612f6d565b925082821015612ef857612ef7613096565b5b828203905092915050565b6000612f0e82612f4d565b9050919050565b60008115159050919050565b60007fffffffff0000000000000000000000000000000000000000000000000000000082169050919050565b600073ffffffffffffffffffffffffffffffffffffffff82169050919050565b6000819050919050565b82818337600083830152505050565b60005b83811015612fa4578082015181840152602081019050612f89565b83811115612fb3576000848401525b50505050565b60006002820490506001821680612fd157607f821691505b60208210811415612fe557612fe46130f4565b5b50919050565b612ff482613152565b810181811067ffffffffffffffff8211171561301357613012613123565b5b80604052505050565b600061302782612f6d565b91507fffffffffffffffffffffffffffffffffffffffffffffffffffffffffffffffff82141561305a57613059613096565b5b600182019050919050565b600061307082612f6d565b915061307b83612f6d565b92508261308b5761308a6130c5565b5b828206905092915050565b7f4e487b7100000000000000000000000000000000000000000000000000000000600052601160045260246000fd5b7f4e487b7100000000000000000000000000000000000000000000000000000000600052601260045260246000fd5b7f4e487b7100000000000000000000000000000000000000000000000000000000600052602260045260246000fd5b7f4e487b7100000000000000000000000000000000000000000000000000000000600052604160045260246000fd5b6000601f19601f8301169050919050565b7f222c20226465736372697074696f6e223a202200000000000000000000000000600082015250565b7f4552433732313a207472616e7366657220746f206e6f6e20455243373231526560008201527f63656976657220696d706c656d656e7465720000000000000000000000000000602082015250565b7f4552433732313a207472616e736665722066726f6d20696e636f72726563742060008201527f6f776e6572000000000000000000000000000000000000000000000000000000602082015250565b7f4552433732313a20746f6b656e20616c7265616479206d696e74656400000000600082015250565b7f4552433732313a207472616e7366657220746f20746865207a65726f2061646460008201527f7265737300000000000000000000000000000000000000000000000000000000602082015250565b7f4552433732313a20617070726f766520746f2063616c6c657200000000000000600082015250565b7f496d6167652055524c2069736e27742076616c69642e20506c6561736520757360008201527f652061206d656d652066726f6d20496d67666c69702e00000000000000000000602082015250565b7f4552433732313a206f70657261746f7220717565727920666f72206e6f6e657860008201527f697374656e7420746f6b656e0000000000000000000000000000000000000000602082015250565b7f4552433732313a20617070726f76652063616c6c6572206973206e6f74206f7760008201527f6e6572206e6f7220617070726f76656420666f7220616c6c0000000000000000602082015250565b7f4552433732313a2062616c616e636520717565727920666f7220746865207a6560008201527f726f206164647265737300000000000000000000000000000000000000000000602082015250565b7f4552433732313a206f776e657220717565727920666f72206e6f6e657869737460008201527f656e7420746f6b656e0000000000000000000000000000000000000000000000602082015250565b7f45524337323155524953746f726167653a2055524920736574206f66206e6f6e60008201527f6578697374656e7420746f6b656e000000000000000000000000000000000000602082015250565b7f227d000000000000000000000000000000000000000000000000000000000000600082015250565b7f4552433732313a206d696e7420746f20746865207a65726f2061646472657373600082015250565b7f222c2022696d616765223a202200000000000000000000000000000000000000600082015250565b7f45524337323155524953746f726167653a2055524920717565727920666f722060008201527f6e6f6e6578697374656e7420746f6b656e000000000000000000000000000000602082015250565b7f4552433732313a20617070726f76656420717565727920666f72206e6f6e657860008201527f697374656e7420746f6b656e0000000000000000000000000000000000000000602082015250565b7f4552433732314d657461646174613a2055524920717565727920666f72206e6f60008201527f6e6578697374656e7420746f6b656e0000000000000000000000000000000000602082015250565b7f7b226e616d65223a202200000000000000000000000000000000000000000000600082015250565b7f496d6167652055524c2069736e27742061204a5045472e20506c65617365206560008201527f6e737572652074686174206974206c696e6b7320746f20746865206d656d652760208201527f7320696d6167652066696c652e00000000000000000000000000000000000000604082015250565b7f4552433732313a20617070726f76616c20746f2063757272656e74206f776e6560008201527f7200000000000000000000000000000000000000000000000000000000000000602082015250565b7f646174613a6170706c69636174696f6e2f6a736f6e3b6261736536342c000000600082015250565b7f4552433732313a207472616e736665722063616c6c6572206973206e6f74206f60008201527f776e6572206e6f7220617070726f766564000000000000000000000000000000602082015250565b7f2e6a706700000000000000000000000000000000000000000000000000000000600082015250565b7f68747470733a2f2f692e696d67666c69702e636f6d2f00000000000000000000600082015250565b6137cd81612f03565b81146137d857600080fd5b50565b6137e481612f15565b81146137ef57600080fd5b50565b6137fb81612f21565b811461380657600080fd5b50565b61381281612f6d565b811461381d57600080fd5b5056fe4142434445464748494a4b4c4d4e4f505152535455565758595a6162636465666768696a6b6c6d6e6f707172737475767778797a303132333435363738392b2fa26469706673582212207cf73aa93a7dcf540dbd13d347392090a18c5126358a09485ff5e9ce4232547164736f6c634300080100335468697320636f6e7472616374206c65747320796f75206d696e74206d656d6573206173204e46547321",
  "linkReferences": {},
  "deployedLinkReferences": {}
}